{
  "_format": "hh-sol-artifact-1",
  "contractName": "Whitelist",
  "sourceName": "contracts/Whitelist.sol",
  "abi": [
    {
      "anonymous": false,
      "inputs": [
        {
          "indexed": true,
          "internalType": "address",
          "name": "_beneficiary",
          "type": "address"
        }
      ],
      "name": "AddedBeneficiary",
      "type": "event"
    },
    {
      "inputs": [
        {
          "internalType": "address",
          "name": "_beneficiary",
          "type": "address"
        }
      ],
      "name": "addSingleToWhitelist",
      "outputs": [],
      "stateMutability": "nonpayable",
      "type": "function"
    },
    {
      "inputs": [
        {
          "internalType": "address[]",
          "name": "_beneficiaries",
          "type": "address[]"
        }
      ],
      "name": "addToWhitelist",
      "outputs": [],
      "stateMutability": "nonpayable",
      "type": "function"
    },
    {
      "inputs": [
        {
          "internalType": "address",
          "name": "_beneficiary",
          "type": "address"
        }
      ],
      "name": "isWhitelisted",
      "outputs": [
        {
          "internalType": "bool",
          "name": "",
          "type": "bool"
        }
      ],
      "stateMutability": "view",
      "type": "function"
    },
    {
      "inputs": [
        {
          "internalType": "address",
          "name": "_beneficiary",
          "type": "address"
        }
      ],
      "name": "removeFromWhitelist",
      "outputs": [],
      "stateMutability": "nonpayable",
      "type": "function"
    },
    {
      "inputs": [
        {
          "internalType": "address",
          "name": "",
          "type": "address"
        }
      ],
      "name": "whitelist",
      "outputs": [
        {
          "internalType": "bool",
          "name": "",
          "type": "bool"
        }
      ],
      "stateMutability": "view",
      "type": "function"
    }
  ],
  "bytecode": "0x608060405234801561001057600080fd5b506105b7806100206000396000f3fe608060405234801561001057600080fd5b50600436106100575760003560e01c80633af32abf1461005c5780637f6497831461008c5780638ab1d681146100a85780639b19251a146100c45780639b49bda2146100f4575b600080fd5b6100766004803603810190610071919061043d565b610110565b6040516100839190610485565b60405180910390f35b6100a660048036038101906100a19190610505565b61017d565b005b6100c260048036038101906100bd919061043d565b610285565b005b6100de60048036038101906100d9919061043d565b6102df565b6040516100eb9190610485565b60405180910390f35b61010e6004803603810190610109919061043d565b6102ff565b005b600061011b8261039c565b15610173576000808373ffffffffffffffffffffffffffffffffffffffff1673ffffffffffffffffffffffffffffffffffffffff16815260200190815260200160002060009054906101000a900460ff169050610178565b600090505b919050565b60005b828290508110156102805760016000808585858181106101a3576101a2610552565b5b90506020020160208101906101b8919061043d565b73ffffffffffffffffffffffffffffffffffffffff1673ffffffffffffffffffffffffffffffffffffffff16815260200190815260200160002060006101000a81548160ff02191690831515021790555082828281811061021c5761021b610552565b5b9050602002016020810190610231919061043d565b73ffffffffffffffffffffffffffffffffffffffff167f2e3361a4e7a8b067d0bbafcb5811e35ba5eccbb7a274be8bcfe4fb6f81fe30c860405160405180910390a28080600101915050610180565b505050565b60008060008373ffffffffffffffffffffffffffffffffffffffff1673ffffffffffffffffffffffffffffffffffffffff16815260200190815260200160002060006101000a81548160ff02191690831515021790555050565b60006020528060005260406000206000915054906101000a900460ff1681565b60016000808373ffffffffffffffffffffffffffffffffffffffff1673ffffffffffffffffffffffffffffffffffffffff16815260200190815260200160002060006101000a81548160ff0219169083151502179055508073ffffffffffffffffffffffffffffffffffffffff167f2e3361a4e7a8b067d0bbafcb5811e35ba5eccbb7a274be8bcfe4fb6f81fe30c860405160405180910390a250565b60008073ffffffffffffffffffffffffffffffffffffffff168273ffffffffffffffffffffffffffffffffffffffff1614159050919050565b600080fd5b600080fd5b600073ffffffffffffffffffffffffffffffffffffffff82169050919050565b600061040a826103df565b9050919050565b61041a816103ff565b811461042557600080fd5b50565b60008135905061043781610411565b92915050565b600060208284031215610453576104526103d5565b5b600061046184828501610428565b91505092915050565b60008115159050919050565b61047f8161046a565b82525050565b600060208201905061049a6000830184610476565b92915050565b600080fd5b600080fd5b600080fd5b60008083601f8401126104c5576104c46104a0565b5b8235905067ffffffffffffffff8111156104e2576104e16104a5565b5b6020830191508360208202830111156104fe576104fd6104aa565b5b9250929050565b6000806020838503121561051c5761051b6103d5565b5b600083013567ffffffffffffffff81111561053a576105396103da565b5b610546858286016104af565b92509250509250929050565b7f4e487b7100000000000000000000000000000000000000000000000000000000600052603260045260246000fdfea26469706673582212204f848b56868a0ff33c7f8ee466c4ea7d6321013a8d781130730a1ef341dc662764736f6c63430008180033",
  "linkReferences": {},
  "deployedLinkReferences": {}
}